:020000040000FA
:10000000E00B2020A5010000A9010000AB010000C9
:1000100000000000000000000000000000000000E0
:10002000000000000000000000000000AD01000022
:100030000000000000000000AF010000B10100005E
:10004000B3010000711F0000B3010000B301000004
:10005000B3010000B3010000B3010000B3010000D0
:1000600000000000B3010000B30100000000000028
:1000700000000000B3010000B3010000E1570000E0
:10008000B301000081570000B30100005557000084
:10009000B3010000B30100000000000000000000F8
:1000A000B3010000B30100000000000000000000E8
:1000B000B301000000000000B3010000B301000024
:1000C00000F002F800F05FF812A030C808382418D9
:1000D0002D18AC4201D100F056F80FCCA246AB4629
:1000E0000CA730CF2D1B083F3F197C427F1E544484
:1000F0002D090426F441641EAC4201D300F043F8FC
:100100000126334200D0FB1A3343984754465D46DC
:10011000DFE700003CAD00005CAD00000808080807
:10012000103A02D378C878C1FAD8520701D330C840
:1001300030C101D504680C60704708080808080839
:100140007047080808080808002300240025002636
:10015000103A01D378C1FBD8520700D330C100D583
:100160000B60704710B5642902D100F07BF810BD18
:10017000782902D100F0ACF810BD002010BD1FB5E9
:100180001FBD10B510BD01F0B1FB1146FFF7F7FF21
:1001900006F060F901F0C9FB03B4FFF7F2FF03BCFE
:1001A00005F060FB06480047FEE7FEE7FEE7FEE7D6
:1001B000FEE7FEE703480449024A044B704700008B
:1001C000C1000000E0072020E00B2020E0072020F5
:1001D0000FB4054910B503AA029801F0DBF910BC71
:1001E00008BC04B018470000D80320200FB41CB589
:1001F000074B06AA7B4469460090059801F0B1F9C7
:100200000020694601F0C0F91CBC08BC04B01847C6
:100210009113000070B5044685690068C10601D5D8
:10022000302600E02026C00707D070BD6268304647
:10023000A1689047206A401C20626D1EF6D570BDF3
:1002400070B5044685690078C00707D170BD626843
:10025000A16820209047206A401C20626D1EF6D5C0
:1002600070BD0808F7B5002575291068009914A617
:1002700011D0C046C046002802DA404211A608E06C
:10028000009909688A0701D50FA602E0490704D53D
:100290000EA6012501E0C046C046009F0024243779
:1002A00004E001F0AFF930313955641C0028F8D171
:1002B0002B4632462146009801F0F6F8FEBD0000BC
:1002C000000000002D0000002B00000020000000B6
:1002D00070B504460D4621461068C046C0462188C8
:1002E000090502D50F4A7A4402E00E4A7A440E32DA
:1002F00023460021243305E006070009360F965DEA
:100300005E54491C0028F7D120780023000705D54A
:10031000702D03D0002901D002231132204601F0B4
:10032000C3F870BD32820000F3B50446002081B0EE
:1003300020622046E168884700287DD0252802D029
:100340006268A16883E0454F00257F442046E1684C
:1003500088472028064608DB312E06D2B8192038F7
:100360000078002801D00543F0E7A80701D5042054
:1003700085430020E0610746A0612A2E0AD030465E
:1003800007F0FEFB002827D0B8000019303E00908F
:10039000866119E00298BA00121902C891610290B0
:1003A0002046E1688847012F064617D1E0690028FA
:1003B0001FDA202085431CE000980A218069484309
:1003C00000998019303888612046E16888470646E0
:1003D00007F0D6FB0028EFD1012F0AD02E2E08D12E
:1003E0002046E16888470646202005437F1C022FEF
:1003F000C3DBA069002803DA4042A0610120054365
:10040000E80701D010208543002E24D03046413823
:10041000192803D80120C002054320362046256054
:100420003146029A1546FFF79DFE00280CD00128A0
:1004300007D0ED1DE80800E00DE0C0000830029094
:1004400077E72D1D029574E762683046A1689047F2
:10045000206A401C6CE7206AFEBD0000F6810000A7
:1004600010B5024A01F0AAF810BD000000002020DB
:10047000401ECAB24178401C8A4202D00029F9D1FC
:1004800000207047034610B50B439B070FD1042A89
:100490000DD308C810C9121FA342F8D018BA21BA48
:1004A000884201D9012010BD0020C04310BD002AA0
:1004B00003D0D30703D0521C07E0002010BD0378FF
:1004C0000C78401C491C1B1B07D103780C78401C7E
:1004D000491C1B1B01D1921EF1D1184610BD080802
:1004E00030B5441C03E00178401C00290DD0810781
:1004F000F9D10B4BDD0104C8D11A91432940FAD040
:10050000001B0A0603D0C01E30BD001B30BD0A040C
:1005100001D0801E30BD0902FCD0401E30BD00005D
:100520000101010101E004C0091F0429FBD28B076E
:1005300001D50280801CC90700D0027070470029D5
:100540000BD0C30702D00270401C491E022904D3FD
:10055000830702D50280801C891EE3E70022EEE7B4
:100560000022DFE7F8B507460B46394619438907ED
:1005700013D1164CE601042A0FD302CB0D1B8D4379
:10058000354202D102C0121FF5E7CBB20370401C06
:10059000521E002B13D0090AF7E7002A14D019784D
:1005A000521E5B1C0170401C002908D0002A0BD091
:1005B0001978521E5B1C0170401C0029EDD1002AE5
:1005C00002D01146FFF7CAFF3846F8BD010101010C
:1005D000002203098B4273D3030A8B4258D3030BC7
:1005E0008B423CD3030C8B4221D312E003460B43D6
:1005F0007FD4002243088B4274D303098B425FD31C
:10060000030A8B4244D3030B8B4228D3030C8B4247
:100610000DD30902FF2212BA030C8B4202D312122D
:10062000090265D0030B8B4219D300E0090AC30B02
:100630008B4201D3CB03C01A5241830B8B4201D3AF
:100640008B03C01A5241430B8B4201D34B03C01A98
:100650005241030B8B4201D30B03C01A5241C30A10
:100660008B4201D3CB02C01A5241830A8B4201D381
:100670008B02C01A5241430A8B4201D34B02C01A6B
:100680005241030A8B4201D30B02C01A5241CDD210
:10069000C3098B4201D3CB01C01A524183098B425B
:1006A00001D38B01C01A524143098B4201D34B0144
:1006B000C01A524103098B4201D30B01C01A5241A7
:1006C000C3088B4201D3CB00C01A524183088B422E
:1006D00001D38B00C01A524143088B4201D34B0017
:1006E000C01A5241411A00D2014652411046704789
:1006F0005DE0CA0F00D04942031000D3404253408E
:100700009C46002203098B422DD3030A8B4212D34D
:100710008901FC2212BA030A8B420CD3890192117F
:100720008B4208D3890192118B4204D389013AD0BC
:10073000921100E08909C3098B4201D3CB01C01A91
:10074000524183098B4201D38B01C01A52414309A4
:100750008B4201D34B01C01A524103098B4201D392
:100760000B01C01A5241C3088B4201D3CB00C01AFF
:10077000524183088B4201D38B00C01A5241D9D217
:1007800043088B4201D34B00C01A5241411A00D298
:1007900001465241104663465B1001D34042002B94
:1007A00000D54942704763465B1000D3404201B513
:1007B0000449002802DC491C084000E00846C04605
:1007C000C04602BDFFFFFF7F7047704770470808B3
:1007D0000246C80FC00781434B0030B54B405B0059
:1007E0009B0D20D01923DB06C91801231B05994254
:1007F00020DB0324A40704251346AB400BD3002BB6
:1008000004D1EB0613409B00E34204D401246407A7
:10081000002312195941FF231B0599420BD2C9002D
:100820000143500F09E0CB0204D501430803024302
:1008300005D0054830BDFF21C905084330BD084635
:1008400007210905884330BD0000C07FF0B50C4684
:10085000871A9C410D46861A9D4103D2C01BA141B7
:10086000D21963410D0D1F0DC94EEC1BAE435CD078
:100870007F057F0D0026002F51D02D05AC46A943E2
:10088000DD020123ED0A1B051D4320231B1B24D47D
:100890001746E740381871412F46E740CC199D4074
:1008A0002818314661410C0D27D161449A4013D577
:1008B0000023401C594152000ED140084000012243
:1008C0004B005205D34207D305204007C14201D552
:1008D000B04900E0B0493046F0BD6B00002A00D0BE
:1008E00001229A181F23203C1B1B01D5002302E084
:1008F000E540281871410C0DD7D0012424050919B1
:10090000C407CD0740084908E40F28436144002C80
:10091000D5D00024401C61419A40D0D1CDE76A0572
:10092000520DD9D1C90FC907D5E79C4D4E000028FB
:1009300001D0012400E0002434195F00002A01D016
:10094000012600E00026BE19954FAC420CD8AE42FD
:100950000AD8B44206D001256D05EC42BCD0104641
:100960001946F0BD9942FCD000203946F0BDF0B5E3
:100970001FB40C460F46811A9F412546861A9D4199
:1009800006D20125ED076F40401ABC4152187B4149
:10099000210D1E0D8D1BAC467D4D8D437ED0750502
:1009A0006D0D7CD00D05AE46AC431B031B0B794D82
:1009B00052429D41202366469B1B14D31746F740A5
:1009C000381800260090744160462F460741E4190C
:1009D00000989D402818664116D4714671189A40B7
:1009E00025D5012320E093182A466A415200002BA6
:1009F00000D0521C1E23203E9B1B002B61DD354185
:100A0000EE1728186641E8D5001876415B1C9A401D
:100A100000D3401C4B05F3181524E34010D3002BE2
:100A200052D071467118D30FC01802D3491C05B0BB
:100A3000F0BD0123DB079A42F9D140084000F6E7F8
:100A400001225205B21801D1002853D00123CC0A4B
:100A5000DB029943891E002A08D1020C03D0020C44
:100A60000004103902E00246002020390023550B13
:100A700005D112020823550B01D152010D23550C4B
:100A800001D112011B1DD50C01D192009B1C150D2B
:100A900001D152005B1C2025EE1A01E02CE022E07F
:100AA0000546F54015439840CA1AE1076918130531
:100AB000C918002ABBDA032040070818C10FC9076C
:100AC0000FE071466118B2E7F10740080843711062
:100AD00071444A000CD001235B059A42A7D2C90F8A
:100AE000C9070020A3E74905490D26D1002001E0F0
:100AF0000028F4D100219AE7284D6600002801D093
:100B0000012100E0002171185F00002A01D00126B8
:100B100000E00026BE19224FA94210D8AE420ED8DE
:100B2000B14208D001256D05E94206D01946A80258
:100B3000414010467BE79C4201D0214677E70020E8
:100B4000394674E710B50C465C4005D50124E4072E
:100B50006340FFF70CFF10BDFFF778FE10BD30B407
:100B60000C465C4004D50124E407634030BC6DE6CC
:100B700030BCFCE670B50124E40761400D465D40E1
:100B800002D4FFF763FE70BD6340FFF7F0FE70BD57
:100B9000FF0700000000F0FF0000F07F0000E0FF12
:100BA0000000F87FF0B5F94D0C091E092C402E40CD
:100BB0002F468BB0A7437DD0B543FCD0002E7AD012
:100BC000002CFCD00D465D40ED0F2543AC1BFF25EE
:100BD000AD0464190894C502440DC9022143500DA7
:100BE000DC0204430120C00701430443D202019107
:100BF000200C110C00958C46010423468B430A916E
:100C000061460904E24D8A430991010A7D4449196C
:100C10008039097805464D4301266D18F605751B88
:100C20006943C90C640B891C4C436418B5012C1B27
:100C3000250C2E04B4434C434D43210C69188909FB
:100C40000591009DE90701D00121C90704912C46B7
:100C500001996708CD072F434C08059DE10B4D43D3
:100C60002D0C29466646754302950D4645432E4692
:100C7000029D7D1BB44100950D465D4301942C0CF3
:100C80002F040D465543AE462D0C3D43029503946B
:100C90007546049C2D04641B049406D2029C039D9B
:100CA000641C002675410395029401AC70CC009F32
:100CB0007D1B01E03EE162E1B4410904009507912A
:100CC00001940599A4086143090C0C464443650B43
:100CD000E7040C4666467443A646640B3C43039502
:100CE00002947446049DE4042C1B049406D2029CD6
:100CF000039D641C002675410395029401AC70CCE1
:100D0000009F7D1BB44101940C465C430095650F28
:100D1000E7000C465443A646640F3C4303950294F7
:100D20007446049DE4002C1B049406D2029C039D8F
:100D3000641C002675410395029401AC70CC009FA1
:100D40007D1BB441AE09AF06049DC900AD092F4318
:100D5000049DA406AD060495079D344369180791C8
:100D6000059DE10B4D432D0C2946664675430295C2
:100D70000D4645432E46029D7D1BB44100950D4610
:100D80005D4301942C0C2F040D465543AE462D0CAB
:100D90003D43029503947546049C2D04641B049402
:100DA00006D2029C039D641C0026754103950294A3
:100DB00001AC70CC009F7D1BB44101948C0506945E
:100DC000079C890A611800950791019C0599A40860
:100DD0006143090C0D464543680BEF040D4664461C
:100DE00065436C0B3C43049FED047D1BAC4602D273
:100DF0000025641C6841009E019D371B8541084603
:100E0000584301950C46460FC5005443600F2843D4
:100E10006546E4002C1B02D20025401C6E41019D5A
:100E20003F1AB5412846BD09800628438446A009DB
:100E3000BF064E020699A40676180743079D0020B8
:100E400068410A99079019430020099B0090604669
:100E5000FF1913434041E20F64003A43A44604469D
:100E6000D71A8C41A04203D90120009020463A466F
:100E7000C70F941840416246D20F22436446640073
:100E80000494009CBE466400D71AA4460446029708
:100E90008C417746002F01D1A04204D96046401C06
:100EA0008446029A2046C40FA64694184041049AEC
:100EB0000546D20F224364466400D31A8D41714621
:100EC000002901D1A84202D928461A46641C1043C1
:100ED0000122002800D0164361020020079B8919D7
:100EE00004465C410223002C02DB4918134664418E
:100EF000089DCE0A2D145D194B056705E10A2C05E6
:100F00000D1908993E43C9076940002B08D093404A
:100F100006D30022761C5141002B01D176087600C1
:100F20001C4A002D43DB154241D0AA433FD0304636
:100F30000BB0F0BD06180D464D41174C7642AC4142
:100F40001AD395181C465C41134A6D42A24113D333
:100F5000012252054C00D4420AD15C00D4420BD08D
:100F60004B4002D592021143E2E749004908DFE70E
:100F70005940C90FC90718E000200849D8E70548BB
:100F800001420DD10342F7D0F2E700000000FF0755
:100F9000457900000000F07F0000E0FF0000F87FCE
:100FA000114859400143C01241400020C0E70123CD
:100FB000089A9B069A4205DC032252078918C90F3A
:100FC000C907B5E7052252078918074A1143D2120B
:100FD0005140ADE770B515461C4602460B46284603
:100FE0002146FFF7DFFD70BDFFFFFF7FF0B58B4CA3
:100FF0000F09254689B0BD437BD01D092646AE4367
:10100000FAD00E465E402740F60F3E43254071D091
:1010100024012142FBD0FF24AD19A4042D1B03950C
:1010200001252D05DB02DB0AC9022B43C90A29432E
:101030001E010901040F130F050121431701880B3D
:10104000820391432D098C46A90B1E438A039543C5
:10105000B30B9A0396433F09BA0B9403A743029636
:101060002E467E430497B6464E19D7190C46019674
:10107000544305977E43371B7646BF1B3601B64661
:10108000BE0B361900967646BC043719009C01D376
:10109000641C00946400002F01D001263443029E9A
:1010A000049F754366467E430496760034196E00AD
:1010B00034190094029C019E1C196643751BAE46B0
:1010C000069465464519059C05956C43594375463C
:1010D0000891691A0191049E01465143A41B049191
:1010E000611A009C0791E10605D0610901221143B4
:1010F00002E072E06EE06109089D00272C0A2D06CF
:101100006918049D7C412A0A2D066918019D6241D7
:10111000AC0DAD026D185441079A910D920255190C
:101120006141029A644658435443069B059A5A43C8
:10113000121A131B9A0E9B015B187A41010B0005D2
:10114000C3185141220A200644195A419A4200D23A
:10115000491C01204002814203D315230226F64395
:1011600002E014230326F6432020C51AA94017469F
:10117000AF40DA400A4320460399D8400914731857
:1011800019055118039A3843D2075140AC4009D091
:101190000122944006D30022401C5141002C01D171
:1011A000400840001E4A934212D30122039892063F
:1011B000904207DB0520400709181A480143C01276
:1011C000414004E0032040070818C10FC907002070
:1011D00009B0F0BD0020F107FAE705180C464C41B4
:1011E00011486D42A04115D394181A465A410E4831
:1011F000644290410ED301204A004005824209D347
:101200005A00824206D35940C90F084AC907002034
:101210001143DDE700200649DAE700000000FF0780
:10122000FE070000FFFFFF7F0000E0FF0000F07FEF
:101230000000F87F0121C9050123411842001B0667
:10124000D3185B0E0AD0C1100722D20689184007B6
:101250005242D14201D5520089187047090208D57F
:101260000146002A03D0C10FC9070020704710466D
:101270007047420202D00020024970470721090549
:101280000143F4E70000F87FF0B5FF252D04C609FF
:10129000C209FF2704462E400137CB093E43484090
:1012A0002A402B400746002A6BD0002B69D0AA4267
:1012B00067D0AB4265D0002800DA32460125ED0543
:1012C00029432C4309022002090AD21A4B0C7F241D
:1012D000E31A434C000A7C44E35C7D242404121985
:1012E00014145B00A218884201D3521C00E0400095
:1012F00049420C465C4324115C43DB016415E3184E
:10130000040A5C43C502200D0C4644436419250AB7
:101310005D432303EC0C0D46654300030019EB18F5
:101320004C42A34201D35B18401CD4052018002B6B
:1013300007D05B00C91804D3401C002901D1400824
:1013400040003F2189048A4209D3002A08DC1106A3
:10135000090F04D0032149074018C00FC007F0BD92
:1013600001224100120689187F2252069142F6D2CC
:1013700005214907C84201D59010F0BDFF20C005E6
:10138000F0BD002F00DA32461648AA4207D2AB421F
:1013900005D21902090E17D0F80FC007F0BDFF25BE
:1013A00063002D06AB42F9D84900A942F6D8AB42FA
:1013B00001D1A942F2D0A94201D1002101E061008E
:1013C0004908D0050843F0BD1102090EFBD0FF20EB
:1013D0000243D005F0BD0A460146104654E700001E
:1013E000FB7200000000C07F10B501469E24000281
:1013F000CA15A307002A02D01843002A04DBA21A48
:10140000002A0CDDD04010BD1206120E01D14000A2
:101410004008A21A03D4D04040420028F3DDFF2246
:1014200048001206904201D9002010BDC817C043E1
:10143000584010BD1F22030C02D10F2200041CD003
:10144000030E01D10002083A030F01D10001121F5F
:10145000830F01D18000921E002801DB4000521E44
:10146000D2055118021251181922904004D3491C78
:10147000002801D14908490008467047C10FC90733
:1014800000D04042012292071143D3E7012189078E
:10149000D0E710B500F0FAF8006810BD10B50446AA
:1014A00000F0F4F8046010BDFFB504460D4681B0AD
:1014B000243000902168880604D51022E069914309
:1014C000216000E00120A84201DD471B00E0002769
:1014D0000498A1697A191018081AA0612078C0062A
:1014E00002D42046FEF796FE002608E003986268C4
:1014F000A168805D9047206A401C761C2062049899
:101500008642F3DB2078C0060AD52046FEF782FE2D
:1015100006E06268A16830209047206A401C206283
:1015200038467F1E0028F4DC07E000986268A16856
:10153000405D9047206A401C206228466D1E0028AE
:10154000F3DC2046FEF77CFE2078000602D5022060
:1015500005B0F0BD0120FBE701694A1C0261087873
:10156000704700B58FB002910021059105490193A4
:1015700079440391114604906846FEF7D5FE0FB0FA
:1015800000BD0000E5FFFFFF0A681070521C0A60F2
:1015900070470808084B70B50D467B44FFF7E1FF24
:1015A0000446284600F076F8002802D00020C04308
:1015B00070BD204670BD0000D74D0000F8B515463F
:1015C0000E46040003D12C68002C00D10CA4204648
:1015D00000F075F80419207800280ED0274631460F
:1015E000384600F05BF804192078002802D000206B
:1015F0002070641C38462C60F8BD0027FAE7000014
:101600000000000001468008081A02091018020AAA
:101610001018020C1018C008820012185200891A03
:1016200001E0401C0A390A29FBD2704770B5054613
:101630004800440D124B0020002C0AD0634008D013
:101640009A4206DA6642B24203DD12054019514160
:1016500070BD002C08D0002B09D0C90FC907002A83
:10166000F6DB084A114370BDC90FC90770BD284693
:101670000A03104302D00020034970BD284670BD04
:10168000FF0700000000F07F0000F87F004870476F
:1016900058002020C06880210840704730B50346BC
:1016A0001D78002D03D00A4603E0AC4201D1181A80
:1016B00030BD1478521C002CF7D15B1CF0E730B51C
:1016C00003461D78002D08D00A461478521C002CC1
:1016D00003D0AC42F9D15B1CF3E7181A30BD0808FF
:1016E000F8B5264C4E00069DA6420AD8A64201D166
:1016F000002806D15E00A64203D8A6420AD1002ADD
:1017000008D00D242404254233D02946002000F0BF
:1017100014F9F8BD0C461C4311D4994207D0C81ADD
:1017200002D3EFF30080F8BDEFF30080F8BD801A1C
:1017300002D3EFF30080F8BDEFF30080F8BD092479
:101740002407E5008B4207D0581A02D3EFF300803C
:1017500006E0EFF3008007E0101A03D3EFF30080F8
:10176000A04303E0EFF30080A043284380F3008808
:10177000F8BD009500F0F8F8F8BD00000000E0FFAB
:10178000F0B53D4B02460C461C400020002C63D0B7
:101790003A4D8B4366D000296BDB0B0D1D05A94329
:1017A00001252D0529430124FD33E34001D392187F
:1017B0004941FF3381339C468B02940D0121234321
:1017C00089074C42920200271B198C105D1A04D421
:1017D0002D1B02D42B466500491992185B41640801
:1017E000F4D15C1A08D40125ED07EE1755197441A0
:1017F00002D42A462346491C94185B4101229207D1
:101800001D46E61B8D4106D4B61A854103D42B46EE
:10181000550034467F1924195B415208802AEFD1C4
:10182000234300D0022338460A22D04001D30122AC
:1018300013438A0510436246890A12058918002B52
:1018400009D00122D34002D30022401C5141002B79
:1018500001D140084000F0BD0B03134307D0C90F6E
:10186000C907F0BD0803104303D1002901DB10466E
:10187000F0BD00202946F0BD0000F07F0000F87F99
:1018800010B5FF231B0644009C421DD84C009C420F
:101890001AD80346124A0B4307D4401A02D3EFF377
:1018A000008010BDEFF3008010BD081A03D3EFF3E2
:1018B0000080904305E0EFF3008001219043C907C9
:1018C000084380F3008810BD0D231B041A4204D086
:1018D0001146002000F031F810BD00F04FF810BDA7
:1018E0000000009000487047580020207546FFF720
:1018F000F9FFAE46050069465346C008C00085465C
:1019000018B020B5FEF756FC60BCB646002600278E
:10191000C0C5C0C5C0C5C0C5C0C5C0C5C0C5C0C59F
:10192000403D490849008D46704710B50446C04601
:10193000C0462046FEF730FC10BDC80212D5480351
:10194000400F002804D0C803C043012188407047DD
:10195000EFF300800001000903210907084380F329
:10196000008870470020704710B500200249029A95
:1019700000F00CF810BD00000000F87F10B5024820
:1019800000F004F810BD00000000C07F10B50C4648
:101990001107090F092904D00A290AD008290CD1F6
:1019A00004E011460820FFF7C8FF06E0510606D5FF
:1019B00001E0510601D50120C007214610BDD10626
:1019C00007D501010909CC084907000E00060443A8
:1019D00009E0410F20024907000A0143200E0006DA
:1019E0001D22D14101430846E7E7811E091F00BFC0
:1019F000FCD27047F0B585B001221402344B19684F
:101A00000494A1431960950362490E682E4208D1DF
:101A10000E682E4205D10E682E4202D10E682E426B
:101A2000F3D0457E15409E69964375199D6120252A
:101A3000455D03263540DF69B7437D19DD61254DDE
:101A40002E6805272F60476A3C681C627C685C62D0
:101A5000072434402C60C4697F252D02DE69AE4323
:101A60006406640C3419DC6150C805680095476849
:101A700085680195C568029503929A69164D1540CF
:101A80002207120B3403A4B2A2183A43009C240785
:101A9000240D1443019A1443029A1443007C2043FA
:101AA0000E4A0240501998611868049A1043186051
:101AB000039840020A68024208D10A68024205D12E
:101AC0000A68024202D10A680242F3D005B0F0BDB2
:101AD00008010B40001340408D00F0FF72FF0F0023
:101AE000F0B5184B1D46083D2E680124A6432E6014
:101AF0000326360330401F68B7433818186018684B
:101B0000FF26B043C9B240181860286820432860F7
:101B10001868002A11D021070843186020021D49C7
:101B20000A68024208D10A68024205D10A680242E4
:101B300002D10A680242F3D0F0BD21078843186041
:101B4000F0BDC04610010B4010B51149886001225C
:101B50005305104804681C4208D104681C4205D192
:101B600004681C4202D104681C42F3D012040B68C2
:101B700013430B600168C90608D40168C90605D47F
:101B80000168C90602D40168C906F3D510BDC04674
:101B900004010B4004020B40F0B582B07B4E844A36
:101BA0008518894A821801923B4A83180A794C7930
:101BB0003A4F012C26D1202A04D00524E401002A22
:101BC00003D003E0364C002A00D188249E683E40B2
:101BD00026439E60DE683E402643DE60AC686D4E64
:101BE0003440AC60EC683440EC600024019EB4608A
:101BF000F4608F24E4439E6926409E61DE6926409E
:101C0000DE61624E80198E790C68202A009208D01D
:101C1000191D002A15D1641E44601A683A408824B0
:101C200015E0611E4160196839401D4A1143196071
:101C3000596839401143596001214C07194F014639
:101C400007E0620842601A683A400524E401224332
:101C50001A600A683A4022430A6029684D4A1140D6
:101C600029606968114069600021019A1160516022
:101C70008F21C9431A690A401A615A690A405A6198
:101C800000990E43BD2131400268074B1340C9182B
:101C9000891C016002B0F0BD7018000024493E00AC
:101CA00001040000FFFFFFCF4000FFCF70B5374AAF
:101CB00082184B6853603E4BC3180878222857D8C7
:101CC000840001A52C59A746671D0000711D000066
:101CD000671D0000711D0000711D0000711D0000D6
:101CE000711D0000711D0000711D0000711D0000BC
:101CF000711D0000711D0000711D0000711D0000AC
:101D0000711D0000711D0000551D0000711D0000B7
:101D1000551D0000711D0000711D0000711D0000A7
:101D2000711D0000711D0000711D0000711D00007B
:101D3000711D0000711D0000711D0000711D00006B
:101D4000711D0000711D0000551D0000711D000077
:101D5000551D0000032424071568A54301246407CA
:101D60002C19146004E0032424071568A5431560AA
:101D70000C69D460CC68064D25401C68054E264091
:101D800074191C60097A0143116070BD04180000C9
:101D9000777702008888FDFF10B507239B04194060
:101DA00092008018024A84589C436118815010BDEB
:101DB0003018000010B5029CA4000019114319430B
:101DC000014A815010BDC046501800009200801892
:101DD000014A81507047C0461018000010B501221A
:101DE000120383180C789C604B7883508978014AE1
:101DF000815010BD0C110000B0B5112212028358A1
:101E00000124A34383508B780C881C438B88234385
:101E1000094C1C408358094D1D402B1983508B7968
:101E2000CC791C43097A21437E23194080184268EB
:101E30009A4351184160B0BD18670000E798FDFF54
:101E400010B50122120383180C789C6049788150E8
:101E500010BD0808F0B583B00126009600250921C1
:101E600021A208242846234602F05EFD0096122196
:101E700020A22846234602F057FD009620A22846BD
:101E80002946234602F050FD01F032FF374604F0A8
:101E9000A5FC054600940196FAB23C2012210223CB
:101EA00002F0BCF8009401962A20002103232A4660
:101EB00002F0B4F801F01CFFC82003F0E7FD7F1C1E
:101EC000002DE4D1012000903C200A210EA208231D
:101ED00002F02AFD01F00CFF7D20C00003F0D6FDCA
:101EE00000F026FF03B0F0BD444D5020696E672E10
:101EF0002E2E0000417474656D7074733A000000FA
:101F00004572726F723A00004F4B21004849896850
:101F100001604849896841607047C046B94802215C
:101F200001600160B848016001607047B0B5404A87
:101F30001168404B1868002414605160586095681F
:101F40006D189560CD0F15731C609A6812189A6011
:101F5000C20F1A7349194910034B196080184010B9
:101F600002490860B0BDC046B8002020BC00202057
:101F7000F0B52C480168491C01602B4800688107B6
:101F800036D501267405B5050021CA43274B103B01
:101F90001F68B9020DD42F42244F18D0C8490968D0
:101FA0002142144600D00124214909680E192C460B
:101FB00008E0C3490968294200D016461C4909684F
:101FC0008E191A4F1A490E60396821433960196811
:101FD00089040DD501246303B8490968002900DA92
:101FE000224614490C68A2180A60396819433960FE
:101FF000C00705D01048014610390968002900D4EF
:10200000F0BDAF490A68012192040A4601D50022B9
:10201000D243084B1C68A2181A60C90702680A4319
:102020000260F0BDC80520203011404048300A4011
:102030009C062020AC06202048100A400148006879
:102040007047C04634072020F0B597B008A83C215F
:10205000FEF786FA5C4E3078002800D1ABE0EFF353
:10206000108072B659490A78594F3888242A03D10A
:1020700000281CD0002020E0002809D001231846A9
:10208000CA5C242A06D0431C3C88A042F7D302E055
:10209000002001E0242209183B88984207D2232A15
:1020A0000BD13A88904200DB87E0002236E0002026
:1020B0003880307062B617B0F0BD00223B881B1A22
:1020C0009A4225DA8B185D78541C232D18D03D8850
:1020D0002D1AAC4216DA9C78232C15D0941C3D881E
:1020E0002D1AAC420CDADD78D41C232D08D03D88A3
:1020F0002D1AAC420ADA1B79121D232BDED107E020
:10210000224605E0012302E0022300E003231A43F4
:102110003B88181A824250DA3A2A43D8541C08A83D
:102120002246FEF71FFA002606550178242939D1E8
:102130004078442836D108A82649FEF791F90028AE
:102140001BD00546234C78212846FEF791F900283C
:102150000AD03A212846FEF78BF9002804D04078AF
:1021600030381D498855761C00202146FEF778F945
:10217000002802D00546082EE5DB174801780791B4
:1021800043788178C478057946798279C07900915D
:1021900001940295039604920590104810A1079AA5
:1021A000FEF724F800200849087038800748C82145
:1021B000FEF7D6F962B617B0F0BD00203880307057
:1021C00062B617B0F0BDC04690012020C8002020A4
:1021D000920120209BAD0000C00020203807202065
:1021E00025642564256425642564256425642564A7
:1021F000000000000120C003024908600249086095
:102200007047C04680E200E000E100E0024801685B
:1022100001220A4302607047041886400120C0056D
:10222000274909680140484248417047012000059C
:10223000234909680140484248417047F0B581B0E0
:102240006946002008700125AE041B4C21781B4F05
:1022500000290BD03968314223D119490A6812028A
:102260001FD50968C9021CD520701AE039683142AF
:1022700006D113490A68120202D50968C902E9D4D5
:102280000A2003F003FC25703868304207D10C485F
:102290000168090209D468460221017001E068461C
:1022A00005706846007801B0F0BD0068C002F8D43F
:1022B000684603210170F4E79401202080130A404E
:1022C00080330A40F0B595B00DAF802038700CAA6D
:1022D0000492002111700BAA059211700A46079111
:1022E0000AA90691087009A80125057056488121A0
:1022F00001605648056008A90A7005640A2003F0C9
:10230000C5FB68266B24304621462A463B4600F032
:10231000D3F9642003F0BAFB304621462A46049BD9
:1023200000F0CAF90EAB182018701B2130462A465F
:1023300000F0C2F90FAB079818701C2130462A46EE
:1023400000F0BAF910AB1320049018701921304630
:102350002A4600F0B1F911AB0420039018701A213D
:1023600030462A4600F0A8F9382130462A46059C16
:10237000234600F0A1F96A2130462A46234600F0A0
:102380009BF9232130462A46234600F095F9372150
:1023900030462A46069B00F08FF97524204600F04F
:1023A00001FA069012AF07983880304621462A4637
:1023B0003B4600F05DF801462548FDF709FF3C78F3
:1023C00024482146FDF704FF682C24D127486824BF
:1023D0002146FDF7FDFE6B21012509AB20462A466B
:1023E00000F06AF96C2108AB20462A4600F064F937
:1023F00013AB04981870192120462A4600F05CF9A6
:1024000014AB039818701A2120462A4600F054F99C
:10241000079815B0F0BD1048FDF7DAFE00950024CE
:102420000EA2082620462146334602F07DFA009689
:102430000195482002232146069A01F0EFFD01F0A4
:1024400057FC284615B0F0BD0480424090120A4067
:10245000A5AD00009DAD0000C0AD00004D5055364B
:10246000303530206572723A00000000AEAD0000D9
:10247000F0B589B00493039205910690EE4981204E
:1024800008900860ED4E01273760376402253560FB
:1024900037600524204603F0DBFB3761204603F05C
:1024A000D7FB0795356106984400E34DE0B200F094
:1024B000C7F900F08DF80028394605D00898286043
:1024C00037603764079F0EE00297059800F0B8F96F
:1024D00000F07EF8089929600125356035640028F0
:1024E000079F39460FD037610125356137600524D4
:1024F00020460F4603F0ACFB3560204603F0A8FBF6
:10250000384609B0F0BD02200690306035600520E5
:10251000059003F09DFB3561059803F099FB069843
:1025200030612C43E0B200F08BF900F051F8002844
:1025300004D00321029FC14EBF4DBFE72E460020AD
:102540000399022901900546BB4C25D34F1E0397E2
:102550000596049D069C059E02F04AFC2870B6482C
:1025600008990160B54806600664046106610524A7
:10257000204603F06DFB0698B04908602046069C93
:1025800003F066FBAD48046106607F1E6D1C002FE2
:10259000E2D1A94C059E039D02F02AFC04994855FE
:1025A00008982060A54D2E602E64069F2F612E6036
:1025B0000524204603F04CFB2F60204603F048FB27
:1025C0002F612E602E46F14D029F019976E7C0469D
:1025D000F0B581B0EE4E0225356101243460EB493F
:1025E000334808603560334F3868C00755D0052040
:1025F00003F02EFBE5493868C0074ED0052003F0F4
:1026000027FBE2493868C00747D0052003F020FBCC
:10261000DE493868C00740D0052003F019FBDB49CC
:102620003868C00739D0052003F012FBD749386855
:10263000C00732D0052003F00BFBD4493868C0072F
:102640002BD0052003F004FBD0493868C00724D004
:10265000052003F0FDFACD493868C0071DD00520DC
:1026600003F0F6FAC9493868C00716D0052003F010
:10267000EFFAC6493868C0070FD18120086034607E
:1026800034643561346135600525284603F0E0FA8D
:102690003460284603F0DCFA06E0356181200860EA
:1026A0000120306030640024204601B0F0BDC046F7
:1026B0008100040080130A40F0B585B000930492B5
:1026C00001910390B148812102910160B04D012434
:1026D0002C602C6402272F602C600526304603F006
:1026E000B7FA2C61304603F0B3FA2F610398400625
:1026F000000E00F0A5F8FFF76BFF002810D0A348EC
:10270000029901602C602C642F612C612F600526DA
:10271000304603F09DFA2C60304603F099FA3EE013
:102720009A4C009E019800F08BF8FFF751FF0028AB
:1027300011D00298206001242C602C642F612C6140
:102740002F600526304603F083FA2C60304603F0F4
:102750007FFA3C4623E00498002827460BD000244B
:10276000305D00F06DF8FFF733FF002816D1641CD0
:102770000498A042F4D10298386001262E602E649D
:10278000022028612E6128600524204603F060FAAB
:102790002E60204603F05CFA002400E0E41CE0B266
:1027A00005B0F0BDF0B583B0019078488121029169
:1027B0000160774E01273760376402253560376046
:1027C0000524204603F044FA3761204603F040FA1E
:1027D0003561D02000F034F8FFF7FAFE019800F0E0
:1027E0002FF8FFF7F5FE02986849086037603764F4
:1027F00035603760204603F02BFA3761204603F03E
:1028000027FA3561D12000F01BF8FFF7E1FE02F056
:10281000EFFA019002985D490860376037643561CE
:1028200037613560204603F013FA3760204603F025
:102830000FFA019803B0F0BD0480424090120A40A4
:10284000F0B581B0514A81211160514F01243C60A3
:102850003C6402253D61009040B2103700283846A4
:1028600000DA4B480460204603F0F2F9484805605E
:102870000526304603F0ECF945480561304603F083
:10288000E7F900984006384600D5414804602046E4
:1028900003F0DEF93E480560304603F0D9F93C48C4
:1028A0000561304603F0D4F900988006384600D51B
:1028B00037480460204603F0CBF9354805603046C0
:1028C00003F0C6F932480561304603F0C1F90098BB
:1028D000C006384600D52E480460204603F0B8F9FB
:1028E0002B480560304603F0B3F9294805613046AE
:1028F00003F0AEF900980007384600D5244804607C
:10290000204603F0A5F922480560304603F0A0F9FF
:102910001F480561304603F09BF900984007384690
:1029200000D51B480460204603F092F91848056062
:10293000304603F08DF916480561304603F088F9FA
:1029400000988007384600D511480460204603F0FF
:102950007FF90F480560304603F07AF90C480561AD
:10296000304603F075F90098C00700D0084F3C606E
:10297000204603F06DF9064C2560304603F068F9F7
:102980002561304603F064F901B0F0BD0480424097
:1029900090120A40F0B581B0014311433FD0044684
:1029A0001046FEF76BFD5A49FEF76EFC574905F0DD
:1029B000F5FC05462046FEF761FD0646294605F072
:1029C00045FDFEF711FD04461C4F38602846314690
:1029D00005F04AFCFEF708FD194B18607D21C9007F
:1029E000184A88420D4602DC9042154601DA1D6005
:1029F00028468C4202DC9442114601DA39600C46CA
:102A0000664901220A7000B2FEF738FD0146C5484A
:102A100000F041F920B2FEF731FD044607E05F48BF
:102A200001210170BF480024214600F034F9BD485F
:102A30003C30214600F02FF901B0F0BDA80720205E
:102A4000A407202018FCFFFFF0B583B002902A4CA9
:102A50002046FFF75BFA294801680CCC0260446805
:102A60004360501A26491F1B81C132267043FEF76E
:102A700005FD244905F092FC234C2146FEF704FC99
:102A800005467E433046FEF7F9FC1E4905F086FCFC
:102A90002146FEF7F9FB00902946019505F0D6FC8A
:102AA0003F210E06314605F079FC0746FEF79CFCF7
:102AB000029C60802846009D294605F0D5FB3146E2
:102AC00005F06CFCFEF790FC208010493846FEF7BC
:102AD000DBFB0F4905F062FCFEF786FCA080914C01
:102AE0002046019900F0D5F83C342046294600F0F4
:102AF000D0F803B0F0BDC046B8052020B0052020B6
:102B0000C00520206A7C5243004092440A171D43AE
:102B100000007A44B0B50F48FFF796FF1F480078D1
:102B2000002811D07F4C204600F03CF8FEF75CFCFA
:102B300005463C34204600F035F8FEF755FC0146CA
:102B4000284602F0FDF8B0BD0020014602F0F8F87A
:102B5000B0BDC0463A042020F0B581B004460F490C
:102B6000012008706F4D00262846314600F093F88A
:102B70002F463C373846314600F08DF8084806703D
:102B800006480670284600F07AF8384600F077F8D4
:102B9000204600F085F801B0F0BDC046CC052020ED
:102BA000CD052020F0B583B004463020205C0028FD
:102BB0004AD0A06AE16A05F049FC0646616805F062
:102BC000EDFB00902061276A3046394605F03EFC57
:102BD0000146206805F0E2FB0546E06038460197B3
:102BE000394605F041FB01460296304605F02EFCC1
:102BF000616A05F039FB0146A06805F0CFFB064687
:102C000060612846009905F02FFB314605F02CFB4A
:102C10000146A06905F028FB0746A061656B2946BF
:102C200004F096FF002801D1A5612F46A56B384618
:102C3000294604F077FF002801D1A5612F460298AC
:102C400020620198606208E00027A761E7612762BF
:102C50006762A762E76218342776384603B0F0BD92
:102C600010B504460EC000302421FDF779FC302059
:102C7000012121540398A0630298606310BD0021D4
:102C80008161C161016241628162C1621830017675
:102C90007047C162704730220123835481627047BC
:102CA000B0B50022012801D0144600E00A4C0B4DBB
:102CB00028462146FFF78AF8012228462146FFF7D9
:102CC00085F8022228462146FFF780F8032228468D
:102CD0002146FFF77BF8B0BD52030000000086409C
:102CE000F0B583B00D4801900D4800903F200406D8
:102CF0000C4D0D4E0D4F284631463A462346FFF700
:102D0000AFFF07480090054801903C352846314602
:102D10003A462346FFF7A4FF03B0F0BD00C041C40C
:102D200000C04144BC062020CDCC4C3F8FC2753D35
:102D300010B5CA4802467C32802300211170141F4E
:102D400021701446083C217014460C3C2170144636
:102D5000103C21701446143C21701446183C21701C
:102D600014461C3C21701446203C21701446243C1F
:102D700021701446283C217014462C3C21701446C6
:102D8000303C21701446343C21701446383C21708C
:102D900014463C3C21701446403C21701446443C8F
:102DA00021701446483C217014464C3C2170144656
:102DB000503C21701446543C21701446583C2170FC
:102DC00014465C3C21701446603C21701446643CFF
:102DD00021701446683C217014466C3C21701446E6
:102DE000703C21701446743C21701446783C21706C
:102DF00014467C3C2170203B8032002B9DD1024642
:102E00007D3280231170141F21701446083C2170FC
:102E100014460C3C21701446103C21701446143C9E
:102E200021701446183C217014461C3C2170144635
:102E3000203C21701446243C21701446283C21700B
:102E400014462C3C21701446303C21701446343C0E
:102E500021701446383C217014463C3C21701446C5
:102E6000403C21701446443C21701446483C21707B
:102E700014464C3C21701446503C21701446543C7E
:102E800021701446583C217014465C3C2170144655
:102E9000603C21701446643C21701446683C2170EB
:102EA00014466C3C21701446703C21701446743CEE
:102EB00021701446783C217014467C3C2170203BE4
:102EC0008032002B9ED102467E3280231170141F67
:102ED00021701446083C217014460C3C21701446A5
:102EE000103C21701446143C21701446183C21708B
:102EF00014461C3C21701446203C21701446243C8E
:102F000021701446283C217014462C3C2170144634
:102F1000303C21701446343C21701446383C2170FA
:102F200014463C3C21701446403C21701446443CFD
:102F300021701446483C217014464C3C21701446C4
:102F4000503C21701446543C21701446583C21706A
:102F500014465C3C21701446603C21701446643C6D
:102F600021701446683C217014466C3C2170144654
:102F7000703C21701446743C21701446783C2170DA
:102F800014467C3C2170203B8032002B9ED17F3048
:102F900080220170031F19700346083B1970034615
:102FA0000C3B19700346103B19700346143B197013
:102FB0000346183B197003461C3B19700346203B1F
:102FC00019700346243B19700346283B19700346C9
:102FD0002C3B19700346303B19700346343B197083
:102FE0000346383B197003463C3B19700346403B8F
:102FF00019700346443B19700346483B1970034659
:103000004C3B19700346503B19700346543B1970F2
:103010000346583B197003465C3B19700346603BFE
:1030200019700346643B19700346683B19700346E8
:103030006C3B19700346703B19700346743B197062
:103040000346783B197003467C3B1970203A803068
:10305000002A9ED100F04CFE10BDC04695012020F4
:10306000F0B59DB00646481EC0B2032800D990E2D4
:103070001F46002A00D198E1024A10467C30802386
:1030800002E0C0469501202000240470051F2C702A
:103090000546083D2C7005460C3D2C700546103D3C
:1030A0002C700546143D2C700546183D2C700546C5
:1030B0001C3D2C700546203D2C700546243D2C708F
:1030C0000546283D2C7005462C3D2C700546303DAC
:1030D0002C700546343D2C700546383D2C70054655
:1030E0003C3D2C700546403D2C700546443D2C70FF
:1030F0000546483D2C7005464C3D2C700546503D1C
:103100002C700546543D2C700546583D2C700546E4
:103110005C3D2C700546603D2C700546643D2C706E
:103120000546683D2C7005466C3D2C700546703D8B
:103130002C700546743D2C700546783D2C70054674
:103140007C3D2C70203B8030002B9DD110467D3083
:1031500080230470051F2C700546083D2C70054621
:103160000C3D2C700546103D2C700546143D2C700E
:103170000546183D2C7005461C3D2C700546203D2B
:103180002C700546243D2C700546283D2C700546C4
:103190002C3D2C700546303D2C700546343D2C707E
:1031A0000546383D2C7005463C3D2C700546403D9B
:1031B0002C700546443D2C700546483D2C70054654
:1031C0004C3D2C700546503D2C700546543D2C70EE
:1031D0000546583D2C7005465C3D2C700546603D0B
:1031E0002C700546643D2C700546683D2C700546E4
:1031F0006C3D2C700546703D2C700546743D2C705E
:103200000546783D2C7005467C3D2C70203B803077
:10321000002B9ED110467E3080230470051F2C7039
:103220000546083D2C7005460C3D2C700546103DAA
:103230002C700546143D2C700546183D2C70054633
:103240001C3D2C700546203D2C700546243D2C70FD
:103250000546283D2C7005462C3D2C700546303D1A
:103260002C700546343D2C700546383D2C700546C3
:103270003C3D2C700546403D2C700546443D2C706D
:103280000546483D2C7005464C3D2C700546503D8A
:103290002C700546543D2C700546583D2C70054653
:1032A0005C3D2C700546603D2C700546643D2C70DD
:1032B0000546683D2C7005466C3D2C700546703DFA
:1032C0002C700546743D2C700546783D2C700546E3
:1032D0007C3D2C70203B8030002B9ED10D467F32F0
:1032E00080201470111F0C70114608390C701146A3
:1032F0000C390C70114610390C70114614390C70D1
:10330000114618390C7011461C390C7011462039C1
:103310000C70114624390C70114628390C70114676
:103320002C390C70114630390C70114634390C7040
:10333000114638390C7011463C390C701146403931
:103340000C70114644390C70114648390C70114606
:103350004C390C70114650390C70114654390C70B0
:10336000114658390C7011465C390C7011466039A1
:103370000C70114664390C70114668390C70114696
:103380006C390C70114670390C70114674390C7020
:10339000114678390C7011467C390C702038803217
:1033A00000289ED100F0A4FC2946019730780246FF
:1033B000203AD2B25E2A00D9E6E0C9004A1ED2B253
:1033C000D3088A1ED2B2D708CA1ED2B2D2081A9225
:1033D0000A1FD2B2D20817924A1FD2B2D20816924E
:1033E0008A1FD2B2D2081592CA1FD2B2D208149242
:1033F0000839C9B2C9081391002102910D461C93E6
:103400001B9704962038C0B20621414362484018F9
:103410001890029C03952A4619921898075D012579
:1034200039462940D0B28000924A1018139BC25CE2
:10343000FE26129632405118C1540222119239468A
:103440001140149BC25CFD26109632405118C154A5
:1034500004220F9239461140159BC25CFB260E9642
:1034600032405118C15408220D9239461140169B22
:10347000C25CF7260C9632405118C15410220B92B0
:1034800039461140179A835CEF260A963340591843
:10349000815420220992394611401A9A865CDF2213
:1034A0000892164071181A9A815440223E461640DE
:1034B0001B99415CBF230793194089191B9E8155B5
:1034C000802106910F401C99415C7F230593194090
:1034D000C9191C9E81551898001940780146294049
:1034E000199E3543EDB2AD00624E7519139FEE5D26
:1034F000129B1E407118E955119F0740149BE95C0F
:10350000109E3140C919E9540F9F0740159BE95C93
:103510000E9E3140C919E9540D9B0340169EA95DCA
:103520000C9F3940C918A9550B9B0340179EA95DF4
:103530000A9F3940C918A955099B03401A9FE95DA4
:10354000089E3140C9181C9BE95502401B9FE95D4C
:10355000079E31408918199AE95506990840E95C97
:10356000059E31400818E854A41C921C062C00D07B
:1035700052E70498461C039DAD1D40780246203A50
:10358000D2B25F2A00D23CE70198002801D000F0B7
:10359000AFFB1DB0F0BDC0460E87000070B5C8255A
:1035A000284602F073FAAE200024214601F05AFBAF
:1035B0002046214601F056FB1020214601F052FB27
:1035C0002046214601F04EFBB020214601F04AFB87
:1035D0008120214601F046FBFF20214601F042FBFD
:1035E000A120214601F03EFBA620214601F03AFB36
:1035F000A820214601F036FB1F263046214601F067
:1036000031FB2846214601F02DFBD320214601F055
:1036100029FB2046214601F025FBD520214601F05B
:1036200021FB80252846214601F01CFBD92021469C
:1036300001F018FB3046214601F014FBDA20214648
:1036400001F010FB2046214601F00CFBDB20214657
:1036500001F008FB4020214601F004FB8D202146AB
:1036600001F000FB1420214601F0FCFA014E304627
:103670007C3001E0950120200470011F0C70014690
:1036800008390C7001460C390C70014610390C7069
:10369000014614390C70014618390C7001461C396A
:1036A0000C70014620390C70014624390C7001461B
:1036B00028390C7001462C390C70014630390C70D9
:1036C000014634390C70014638390C7001463C39DA
:1036D0000C70014640390C70014644390C700146AB
:1036E00048390C7001464C390C70014650390C7049
:1036F000014654390C70014658390C7001465C394A
:103700000C70014660390C70014664390C7001463A
:1037100068390C7001466C390C70014670390C70B8
:10372000014674390C70014678390C7001467C39B9
:103730000C70203D8030002D9ED130467D308021A0
:103740000470021F14700246083A147002460C3AC4
:1037500014700246103A14700246143A147002466D
:10376000183A147002461C3A14700246203A14703B
:103770000246243A14700246283A147002462C3A43
:1037800014700246303A14700246343A14700246FD
:10379000383A147002463C3A14700246403A1470AB
:1037A0000246443A14700246483A147002464C3AB3
:1037B00014700246503A14700246543A147002468D
:1037C000583A147002465C3A14700246603A14701B
:1037D0000246643A14700246683A147002466C3A23
:1037E00014700246703A14700246743A147002461D
:1037F000783A147002467C3A1470203980300029DF
:103800009ED130467E3080210470021F1470024623
:10381000083A147002460C3A14700246103A1470BA
:103820000246143A14700246183A147002461C3AC2
:1038300014700246203A14700246243A147002466C
:10384000283A147002462C3A14700246303A14702A
:103850000246343A14700246383A147002463C3A32
:1038600014700246403A14700246443A14700246FC
:10387000483A147002464C3A14700246503A14709A
:103880000246543A14700246583A147002465C3AA2
:1038900014700246603A14700246643A147002468C
:1038A000683A147002466C3A14700246703A14700A
:1038B0000246743A14700246783A147002467C3A12
:1038C00014702039803000299ED130467F3080210D
:1038D0000470021F14700246083A147002460C3A33
:1038E00014700246103A14700246143A14700246DC
:1038F000183A147002461C3A14700246203A1470AA
:103900000246243A14700246283A147002462C3AB1
:1039100014700246303A14700246343A147002466B
:10392000383A147002463C3A14700246403A147019
:103930000246443A14700246483A147002464C3A21
:1039400014700246503A14700246543A14700246FB
:10395000583A147002465C3A14700246603A147089
:103960000246643A14700246683A147002466C3A91
:1039700014700246703A14700246743A147002468B
:10398000783A147002467C3A14702039803000294D
:103990009ED100F0ADF9AF200024214601F062F97C
:1039A00030467C3080210470021F14700246083AB1
:1039B000147002460C3A14700246103A1470024613
:1039C000143A14700246183A147002461C3A1470E5
:1039D0000246203A14700246243A14700246283AED
:1039E000147002462C3A14700246303A14700246A3
:1039F000343A14700246383A147002463C3A147055
:103A00000246403A14700246443A14700246483A5C
:103A1000147002464C3A14700246503A1470024632
:103A2000543A14700246583A147002465C3A1470C4
:103A30000246603A14700246643A14700246683ACC
:103A4000147002466C3A14700246703A14700246C2
:103A5000743A14700246783A147002467C3A147034
:103A60002039803000299ED130467D30802104707D
:103A7000021F14700246083A147002460C3A147081
:103A80000246103A14700246143A14700246183A6C
:103A9000147002461C3A14700246203A1470024612
:103AA000243A14700246283A147002462C3A1470D4
:103AB0000246303A14700246343A14700246383ADC
:103AC000147002463C3A14700246403A14700246A2
:103AD000443A14700246483A147002464C3A147044
:103AE0000246503A14700246543A14700246583A4C
:103AF000147002465C3A14700246603A1470024632
:103B0000643A14700246683A147002466C3A1470B3
:103B10000246703A14700246743A14700246783ABB
:103B2000147002467C3A14702039803000299ED1EE
:103B300030467E3080210470021F14700246083A1D
:103B4000147002460C3A14700246103A1470024681
:103B5000143A14700246183A147002461C3A147053
:103B60000246203A14700246243A14700246283A5B
:103B7000147002462C3A14700246303A1470024611
:103B8000343A14700246383A147002463C3A1470C3
:103B90000246403A14700246443A14700246483ACB
:103BA000147002464C3A14700246503A14700246A1
:103BB000543A14700246583A147002465C3A147033
:103BC0000246603A14700246643A14700246683A3B
:103BD000147002466C3A14700246703A1470024631
:103BE000743A14700246783A147002467C3A1470A3
:103BF0002039803000299ED17F3680203470311FDB
:103C00000C70314608390C7031460C390C70314655
:103C100010390C70314614390C70314618390C705B
:103C200031461C390C70314620390C70314624392C
:103C30000C70314628390C7031462C390C703146E5
:103C400030390C70314634390C70314638390C70CB
:103C500031463C390C70314640390C70314644399C
:103C60000C70314648390C7031464C390C70314675
:103C700050390C70314654390C70314658390C703B
:103C800031465C390C70314660390C70314664390C
:103C90000C70314668390C7031466C390C70314605
:103CA00070390C70314674390C70314678390C70AB
:103CB00031467C390C702038803600289ED100F0C7
:103CC00017F800F015F805A001210A460B46FFF78A
:103CD000C7F9C82001F0DAFE70BDC0464F4C45441C
:103CE00020696E69742073756363657373210000C6
:103CF000F0B585B00120C103039180070490002135
:103D0000C54FB02002910843C0B20024214600F004
:103D1000A9FF2046214600F0A5FF1020214600F013
:103D2000A1FF049E30480660039D056004242046E0
:103D300001F08EFF2C480661204601F089FF2A48D9
:103D40000561204601F084FF782001F037FB26480A
:103D50000660204601F07CFF23480560204601F004
:103D600077FF21480561204601F072FF402001F0F5
:103D700025FB1D480660204601F06AFF1A480560D1
:103D80000646204601F064FF3561204601F060FFE1
:103D900080260197387801F011FB049812490860D9
:103DA0000424204601F054FF039D0F48056020467F
:103DB00001F04EFF0C480561204601F049FF761ED8
:103DC0003F1D002EE6D1049C074D2C61039828600E
:103DD000042001F03DFF2C60019F7F1C0299491CCB
:103DE00004298ED105B0F0BD90120A40F0B58CB018
:103DF0000B910590082B01D1062409E05907D8083A
:103E0000002900D0401C5C084443200600D1F8E0A3
:103E100011980390203AD1B22420009148437A4966
:103E20000918580802900020E2B20192059F04464A
:103E3000049308E007460999491C641CE0B2019A02
:103E4000904200D3DDE0082B0991089404D10621AB
:103E5000009A51436F4A0FE0182B00D1CFE0102B8E
:103E600007D00C2B00D0CCE00C21009A5143684ABB
:103E700002E000990901654A5118081800210691CD
:103E8000405601230A901840454245410398444258
:103E90004441654007200B9A114601401E468E4062
:103EA0000797F9B289005C4F7F18D1B2CA08B95C94
:103EB000002D01D1314300E0B143B95402210A9AE7
:103EC00011404E424E4166400B99491CCAB2014016
:103ED0001D468D40D208B95C002E01D1294300E077
:103EE000A943B95404210A9A11404E424E416640FA
:103EF0000B99891CCAB201401D468D40D208B95C9D
:103F0000002E01D1294300E0A943B95408210A9A9F
:103F100011404E424E4166400B99C91CCAB2014045
:103F20001D468D40D208B95C002E01D1294300E026
:103F3000A943B95410210A9A11404E424E4166409D
:103F40000B99091DCAB201401D468D40D208B95CCB
:103F5000002E01D1294300E0A943B95420210A9A37
:103F600011404E424E4166400B99491DCAB2014074
:103F70001D468D40D208B95C002E01D1294300E0D6
:103F8000A943B95440210A9A11404E424E4166401D
:103F90000B99891DCAB201401D468D40D208B95CFB
:103FA000002E01D1294300E0A943B9540A99002900
:103FB000194600DA06994C400B99C91D0840834008
:103FC000C8B2C008395C002C01D1194300E0994304
:103FD000049B089C39540798401C082B00D129E702
:103FE000C1B2059A891A029A914202D10B9A0832FB
:103FF0000B92029A9142059F00D01BE71BE70846EF
:104000003CE70CB0F0BDC0469A930000AA8D0000BA
:10401000368900000E87000095012020F0B58BB096
:1040200007AC07C4002B4DD01C46109841080690E1
:10403000082800D1891C059111980490A01E0290B7
:104040000025E24E039416E00121099803F0E6FBF7
:104050000A21FCF7BDFA0498009030220A43059823
:10406000454307982818C0B20899069BFFF7BEFE83
:10407000A7420A9D26D2681C0A90C7B2BC42E3D070
:10408000E84320180299491BC9B2032901D2012132
:1040900008E0FC2202400023012171431B1DDCB219
:1040A0009442FAD103221040039CCED0012801D1C2
:1040B0000A2005E0022802D07D20C00000E0642034
:1040C0004143C2E70BB0F0BDF0B597B00492421F78
:1040D000D2B292083F2A00D274E1142900D971E1CA
:1040E00003911D9A1C990F91C00001460839002ABE
:1040F0006BD000220F9C002C00D1D243CCB2E5083B
:10410000B14C2E197C3680243270351F2A7035460A
:10411000083D2A7035460C3D2A703546103D2A7000
:104120003546143D2A703546183D2A7035461C3DEB
:104130002A703546203D2A703546243D2A70354682
:10414000283D2A7035462C3D2A703546303D2A7070
:104150003546343D2A703546383D2A7035463C3D5B
:104160002A703546403D2A703546443D2A70354612
:10417000483D2A7035464C3D2A703546503D2A70E0
:104180003546543D2A703546583D2A7035465C3DCB
:104190002A703546603D2A703546643D2A703546A2
:1041A000683D2A7035466C3D2A703546703D2A7050
:1041B0003546743D2A703546783D2A7035467C3D3B
:1041C0002A70203C8036002C9ED11E9A0092002B33
:1041D00000D1F2E09A1E0192C9B2C9080E91411EA7
:1041E000C9B2C9080D91811EC9B2C9080C91C11E7E
:1041F000C9B2C9080B91011FC9B2C9080A91411F70
:10420000C9B2C9080991811FC9B2C9080891C01F64
:10421000C0B2C00807900024029305E0029B0598F5
:104220009842069C00D3C8E0601C0690C0B205907E
:10423000834201D1012120E0E04318180199091BB4
:10424000C9B2032901D2012109E0FC220240002663
:1042500001215E4F7943361DF5B29542FAD1032212
:1042600010400AD0012801D10A2005E0022802D01E
:104270007D20C00000E064204143049803F0CEFAA2
:104280000A21FCF7A5F903982418062044431022BC
:104290001292114311910025109006462B460BE017
:1042A0000D98215C194089182154761E149B5B1CC3
:1042B000169C641C002EB1D015960F994E424E41AB
:1042C000109A11984243424882181493D3563246AA
:1042D0005A400120139002401694E4B2A4003A48D8
:1042E00004190E98275CFE213940891821540227B1
:1042F000194639404A424A4172402A4600D13A465C
:104300000798215CFD270F40B9182154042719464E
:1043100039404A424A4172402A4600D13A460898FA
:10432000215CFB270F40B918215408271946394052
:104330004A424A4172402A4600D13A460998215CD5
:10434000F7270F40B91821541946129801404A42E4
:104350004A4172402A4600D1129A0A98215CEF27FE
:104360000F40B91821542027194639404A424A4182
:1043700072402A4600D13A460B98215CDF270F4055
:10438000B91821544027194639404A424A417240DF
:104390002A4600D13A460C98215CBF270F40B91835
:1043A0002154002B139800DA28467F2346402A46E2
:1043B000159E00D074E7DA4372E70098002801D018
:1043C000FFF796FC17B0F0BD9501202010270000E4
:1043D0000E870000F0B599B00692421FD2B2920843
:1043E0003F2A00D298E2142900D995E2049105935E
:1043F0001F9B1E991391C1000A46083A002B6BD0EF
:104400000020139B002B00D1C043D3B2DB08F84C33
:104410001B197C33802418701D1F28701D46083D11
:1044200028701D460C3D28701D46103D28701D4605
:10443000143D28701D46183D28701D461C3D2870EF
:104440001D46203D28701D46243D28701D46283DF0
:1044500028701D462C3D28701D46303D28701D4695
:10446000343D28701D46383D28701D463C3D28705F
:104470001D46403D28701D46443D28701D46483D60
:1044800028701D464C3D28701D46503D28701D4625
:10449000543D28701D46583D28701D465C3D2870CF
:1044A0001D46603D28701D46643D28701D46683DD0
:1044B00028701D466C3D28701D46703D28701D46B5
:1044C000743D28701D46783D28701D467C3D28703F
:1044D000203C8033002C9ED106200A90034604988D
:1044E0004343D2B2D00812904A1ED2B2D0081190E3
:1044F0008A1ED2B2D0081090CA1ED2B2D0080F9035
:104500000A1FD2B2D0080E904A1FD2B2D0080D9026
:104510008A1FD2B2D0080C90C91FC9B2C8080B902C
:104520000698002800D587E0002418940AE0119B23
:10453000E85C10404018E854641C179B5B1C062C78
:1045400000D104E1139846424641F54802573146EE
:1045500051400120169001401793DBB29B00EF48B9
:10456000C518129FEB5DFE2018404018E855022345
:1045700010461840414241417140189900D11946F6
:104580000B9FE85DFD2303405818E85504231046AF
:104590001840414241417140189900D119460C9F81
:1045A000E85DFB2303405818E855082310461840DF
:1045B000414241417140189900D119460D9FE85D73
:1045C000F72303405818E85510231046184041427D
:1045D00041417140189900D119460E9FE85DEF23C3
:1045E00003405818E85520231046184041424141E5
:1045F0007140189900D119460F9FE85DDF230340F1
:104600005818E85540231046184041424141714036
:10461000189900D11946109FE85DBF230340581830
:10462000E855002A169800DA18987F224640189913
:1046300000D07CE7D1437AE74E210AE01198215C53
:104640001940891821541899491C179B5B1C54293F
:104650007AD01398454245411891B14847562A46A9
:104660007A400120169002401793DBB29B00AB48C2
:10467000C4181298235CFE261E40B218225402234E
:104680003A461A405642564100226E40164600D124
:104690001E460B98235CFD211940891921540423DF
:1046A000394619404E424E416E40164600D11E46D4
:1046B0000C98215CFB230B4099192154082339469F
:1046C00019404E424E416E40164600D11E460D988E
:1046D000215CF7230B4099192154102339461940C6
:1046E0004E424E416E40164600D11E460E98215C49
:1046F000EF230B40991921542023394619404E428B
:104700004E416E40164600D11E460F98215CDF23B5
:104710000B40991921544023394619404E424E41CD
:104720006E40164600D11E461098215CBF230B40F8
:1047300099192154002F169800DA10467F2345401E
:1047400000D07BE7DA4379E706984042069020984C
:104750000190059A002A00D1D9E0901E0290012014
:104760000025704E0390074609E0089D6D1C079FC9
:104770007F1CF8B2059A82426A4E00D2C7E0F8B2B6
:10478000824203991FD0E84310180299491BC9B20D
:10479000032901D2012108E0FC220240002301216B
:1047A00071431B1DDCB29442FAD1032210400AD09F
:1047B000012801D10A2005E0022802D07D20C00096
:1047C00000E0642041430895069803F027F80A2189
:1047D000FBF7FEFE049807973B180A984343102204
:1047E0001492114309910024054622460EE0C0466A
:1047F0009501202011983B5C0B40991839546D1E8F
:10480000169A521C189B5B1C002DAED0179513995D
:104810004D424D410A990998414341484118169229
:1048200089562A464A400120159002401893DBB26F
:104830009B003A48C71812983B5CFE261E40B218EF
:104840003A5402220B4613405E425E416E402346BC
:1048500000D113460B983A5CFD261640F2183A54E4
:1048600004220B4613405E425E416E40234600D157
:1048700013460C983A5CFB261640F2183A5408226C
:104880000B4613405E425E416E40234600D1134604
:104890000D983A5CF7261640F2183A540A461498D6
:1048A0000240534253416B40224600D1149A0E9865
:1048B0003B5CEF261E40B2183A5420220B461340B0
:1048C0005E425E416E40234600D113460F983A5C2B
:1048D000DF261640F2183A5440220B4613405E423F
:1048E0005E416E40234600D1134610983A5CBF26C5
:1048F0001640F2183A540029159800DA20467F2114
:1049000045402246179D00D074E7CA4372E70198DC
:10491000002801D0FFF7ECF919B0F0BD9501202077
:104920000E87000010270000F0B583B00646177808
:1049300038462038C0B25E281CD8082B01D05D084C
:1049400000E0062508980190541C029501980090FB
:10495000F0B2FAB20D461F46FFF748FA3B46294629
:10496000029D7619601C27783A46203AD2B25F2A17
:104970000446EBD303B0F0BDF0B583B00D46411F44
:10498000C9B289083F291BD31E4614460290089FCE
:104990002846FBF7A5FD00960197FE210140152949
:1049A00007D8C0B21521081A81B2C90B40184110AE
:1049B00000E000210298C9B22A46234600F002F81E
:1049C00003B0F0BDF0B591B00C93431FDBB29B0870
:1049D0003F2B00D23FE1142900D93CE1169BC600D1
:1049E00030460838002B6BD000270C9B002B00D1E1
:1049F000FF43C3B2DB08994C1B197C3380241F7022
:104A00001D1F2F701D46083D2F701D460C3D2F7039
:104A10001D46103D2F701D46143D2F701D46183D3C
:104A20002F701D461C3D2F701D46203D2F701D46CA
:104A3000243D2F701D46283D2F701D462C3D2F70A4
:104A40001D46303D2F701D46343D2F701D46383DAC
:104A50002F701D463C3D2F701D46403D2F701D465A
:104A6000443D2F701D46483D2F701D464C3D2F7014
:104A70001D46503D2F701D46543D2F701D46583D1C
:104A80002F701D465C3D2F701D46603D2F701D46EA
:104A9000643D2F701D46683D2F701D466C3D2F7084
:104AA0001D46703D2F701D46743D2F701D46783D8C
:104AB0002F701D467C3D2F70203C8033002C9ED1F2
:104AC000179B01931478002C00D1BFE0142900D962
:104AD000BCE0C0B2C0080B90701EC0B2C0080A9003
:104AE000B01EC0B2C0080990F01EC0B2C008089045
:104AF000301FC0B2C0080790701FC0B2C008069037
:104B0000B01FC0B2C0080590F01FC0B2C00804902A
:104B100003920620034602914B43203CE1B24143FD
:104B20004F4840180D900025109509E00A9BFA5C4B
:104B30000A401018F8546D1C0F9B5B1C062D79D091
:104B40000C99484248410D99495702464A40012470
:104B50000E9422400F93DEB2B600404B9F190B9C7F
:104B60003E5DFE2333409A183A5502220B4613400D
:104B70005E425E414640109E00D11646049C3A5D5E
:104B8000FD2313409A193A5504220B4613405E4206
:104B90005E414640109E00D11646059C3A5DFB23BF
:104BA00013409A193A5508220B4613405E425E4163
:104BB0004640109E00D11646069C3A5DF7231340EE
:104BC0009A193A5510220B4613405E425E41464008
:104BD000109E00D11646079C3A5DEF2313409A19A8
:104BE0003A5520220B4613405E425E414640109EDD
:104BF00000D11646089C3A5DDF2313409A193A55B6
:104C000040220B4613405E425E414640109E00D15A
:104C10001646099C3A5DBF2313409A193A5500295C
:104C20000E9A00DA109A7F215040109800D07DE74C
:104C3000C8437BE7039A5478002C029906D0481C9D
:104C4000521CCBB2142B014600D261E70198002818
:104C500001D0FFF74DF811B0F0BDC04695012020FE
:104C60000E870000F0B583B0019102900120860705
:104C7000234D2E60C7032F600424204600F0E8FF78
:104C80002E61204600F0E4FF2F61204600F0E0FF97
:104C9000782000F093FB2E60204600F0D9FF2F60B3
:104CA000204600F0D5FF2F61204600F0D1FF01998A
:104CB000481E8141880100F081FB2E60204600F0F3
:104CC000C7FF2F60204600F0C3FF2F61204600F091
:104CD000BFFF029800F072FB2E60204600F0B8FF84
:104CE0002F60204600F0B4FF2F61204600F0B0FF97
:104CF0002E612F60204600F0ABFF2E6003B0F0BDA8
:104D000090120A40022817D80CD10C4800210163E8
:104D100081608161C16101624162016441648164B9
:104D2000C164704728214143044840180021816034
:104D30008161C161016241627047C0464C07202019
:104D4000F0B581B00C46274A9042014600DC11467E
:104D5000254A914200DB1146002803DC4B39C00B89
:104D6000014000E04B310EB2F01731464140091AC4
:104D700003250227002E2A4600DC3A461B48FDF791
:104D800025F8002E00DC2F460026184831463A460A
:104D9000FDF71CF813498C42204600DC08461249F6
:104DA000884200DB0846002C03DC4B38E10B08404E
:104DB00000E04B3005B2E81729464140091A0124AA
:104DC000012D224600DB32460848FCF7FFFF002D8C
:104DD00000DC3446054831462246FCF7F7FF01B0B7
:104DE000F0BDC046AEFCFFFF52030000000086404D
:104DF000F0B587B084484C4901604C4F02263E60B4
:104E00000524204600F024FF3D46103D2E6020463C
:104E100000F01EFF464800680690204600F018FF8C
:104E20003E60204600F014FF2E60204600F010FF88
:104E30003F4800680590204600F00AFF3E6020468B
:104E400000F006FF2E60204600F002FF384F386861
:104E50000490204600F0FCFE34480660204600F036
:104E6000F7FE2E60204600F0F3FE386803902046DF
:104E700000F0EEFE2D480660204600F0E9FE2E60B0
:104E8000204600F0E5FE38680290204600F0E0FE83
:104E900026480660204600F0DBFE2E60204600F02B
:104EA000D7FE3F68204600F0D3FE2048066020462B
:104EB00000F0CEFE2E60204600F0CAFE1C480068BE
:104EC0000190204600F0C4FE18480660204600F01D
:104ED000BFFE2E60204600F0BBFE15480568204648
:104EE00000F0B6FE114806600120059A02400699BE
:104EF000C907890F51188900049AD207920F89189F
:104F0000039A024051188900029AD207920F891819
:104F1000074079188900019AD207920F8918054035
:104F20006818C0B207B0F0BD81000400A0120A40AA
:104F300080130A40034800210170034801700348B0
:104F400001707047AC0720203904202094062020EF
:104F500070B52D4A002050629062842010660120B6
:104F600003022A490B608524146703030B60D46194
:104F7000274B08251D60946304240C60822414656B
:104F8000244C5465244C254DA5608125556425602D
:104F90001561234E2663666356675661E660214EAF
:104FA000A663E662156055601A46303A1E4C1460DE
:104FB0001A46403A1D4C14601D4A1A6082071D4B68
:104FC0001C6814431C60C2071B4B1C6A14431C6200
:104FD0001C6814431C600A46303A202313600B609F
:104FE000800616490A6802430A60052080020A69A1
:104FF00002430A611248016A124A114301620168C0
:105000001143016070BDC04604804240D0320A4066
:10501000D0120A40820004009480424081000100C6
:1050200081000C0081000E0002000200018000409F
:1050300003800240A0130A4028100A4090330A401F
:1050400028300A400020600009480A490A680240E6
:1050500082420BD00A680240824207D00A680240AE
:10506000824203D00A6802408242EFD17047C046B4
:10507000000B200004020B4070B51A4800240460A5
:105080000F200002184E316881430125680208187C
:1050900030600320C143321F13680B4013607168F6
:1050A000A9437160290272688A4372600003642117
:1050B0002A46FCF715FD0D48FCF79CFC30681021D2
:1050C000014320208143316028033168014331606E
:1050D0002046FCF739FDFF20000205490A6882439B
:1050E0000A6070BD08030B4004010B4004AD0000D2
:1050F00000E400E00548042101604F2141600021E7
:105100008160016805220A430260704710E000E0F8
:1051100010B50D4C0D492046FCF760FE0C492046A9
:10512000FCF7C4FD0B48016802220A430260FF201D
:1051300000061B490A688243032080071018086094
:1051400005480121016010BD002086402CAD000003
:1051500030AD0000283086400831864010B50C4C38
:105160000C492046FCF73AFE0B492046FCF79EFD11
:105170000A480168012211430160FF20000208492A
:105180000B688343D003181808600648026010BDFE
:105190000080864044AD000048AD00002890864065
:1051A00010E400E00891864010B5194C19492046DA
:1051B000FCF746FE18492046FCF71EFE0320C103FB
:1051C000164802688A4302600169154A0A4015328E
:1051D000026141692D220A4312218A4342614268D9
:1051E00001210A4043688B439A1842608A020D4BA2
:1051F0001C6814431C60FF2212060B4B1C6894436E
:105200008A07A2181A6002680A43026010BDC046ED
:10521000008010405CAD00005EAD000000911040C9
:105220000000FFFF289010400CE400E080B500F083
:1052300021F8FFF78DFEFFF71FFF00F045F8FFF79D
:1052400067FFFFF78BFFFFF7AFFFFFF753FFFFF796
:10525000FBFEB820044900220A5404490A549C2049
:1052600003490A5480BDC04654042020D80520209C
:105270001005202070B50C480C4941600C4A516063
:105280000C4B59600C4C61600C4D69600C4E7160A8
:105290000C490160116019602160296031601020A3
:1052A000FCF7A3FB70BDC04600080A40030000B134
:1052B00000280A4000088640002886400088864072
:1052C0000088104001000026F0B583B02E4C2F4915
:1052D0002046FCF783FD2E492046FCF75DFC0025A7
:1052E0000095204629462A462B46FCF763FD2046BA
:1052F00029462A46FCF750FD7D20C600204631464F
:105300002A46FCF763FD01270097204629462A46D6
:105310002B46FCF74FFD204629463A460297FCF7FC
:105320003BFD2046314634463A46FCF74FFD022607
:105330000096154F384629462A462B46FCF73AFD7B
:10534000384629463246FCF727FD38462146324684
:10535000FCF73CFD03260096384629462A462B4694
:10536000FCF728FD384629463246FCF715FD38463D
:1053700021463246FCF72AFD0648029981600F213A
:10538000016003B0F0BDC0460000864068AD00007B
:105390006CAD000000118640B0B5FCF74FFE04462E
:1053A000054D03CD611A083D814203D3A968E86821
:1053B00088476C60B0BDC04644002020F0B583B083
:1053C000029040B23F4E374610370028384600DA88
:1053D00030460124A107019101600425284600F010
:1053E00037FCE4033460284600F032FC3461029854
:1053F0004006384600D5304601990160284600F045
:1054000027FC3460284600F023FC346102988006B3
:10541000384600D5304601990160284600F018FC56
:105420003460284600F014FC34610298C006384607
:1054300000D5304601990160284600F009FC34602F
:10544000284600F005FC346102980007384600D574
:10545000304601990160284600F0FAFB3460284686
:1054600000F0F6FB346102984007384600D530461C
:1054700001990160284600F0EBFB3460284600F0FB
:10548000E7FB346102988007384600D53046019921
:105490000160284600F0DCFB3460284600F0D8FBB1
:1054A00034610298C00700D037460198386028461A
:1054B00000F0CEFB3460284600F0CAFB346103B034
:1054C000F0BDC04690120A40F0B585B078487949E1
:1054D000794C224601F09EF8784801780122012992
:1054E000049202D17648056801E0027025682068C0
:1054F000744902F053FF06467349284602F04EFFF6
:10550000314602F0B1FE06466D480660D448007888
:10551000002800D1A2E06E49304602F00EFB07469B
:105520006C49304602F0A0FE0446002F00D13446FC
:105530006949204602F019FB0546684F2046394666
:1055400002F092FE0146002D00D121465F4800681E
:1055500002F07CFF04465E4902F0EFFA0646204660
:105560005C4902F081FE0546002E00D12546284602
:10557000594902F0FAFA06462846394602F074FE06
:105580000446002E00D12C46674801680391046050
:105590000498C107204604918843514902F0E5FA76
:1055A00006466B480068214602F05EFE0546002E66
:1055B00000D135465D4806682846314602F0BDFAFE
:1055C0000028374600D12F460498464038463146D9
:1055D00002F0CBFA002800D13E465D4806604E48F6
:1055E0000068314602F0DAFE05464D480068214663
:1055F00002F0D4FE294602F037FE06462046039903
:1056000002F024FF01464D48006802F0C7FE314613
:1056100002F02AFE0646474804683046214602F05A
:105620008CFA0028254600D1354604984440284687
:10563000214602F09AFA002800D12C462948006839
:10564000214602F011FEFBF7CFFE404202B20021DC
:10565000E348405EFDF79EF905B0F0BD0025282720
:1056600013481449224600F0D5FF26680A2000F0AE
:105670000DFA2846314602F0F7FD05467F1EEFD1B0
:105680002B492846FBF700FE10490860049C74482B
:1056900004700868FBF7A8FE024600200094019001
:1056A000029403200B210423FEF794FE05B0F0BD05
:1056B0009C072020A0072020BC072020CE0520200A
:1056C000D0052020CDCC4C3ECDCC4C3FB407202083
:1056D000000034430000B4C3000034C30000B443EE
:1056E00000002041040020200B480C4901600C48B8
:1056F0000C4901601648002101600B4801600B480D
:105700000B4A02600B480C4A0260554801700120A8
:1057100080070A4908607047C80720208FC2F53CFF
:10572000C40720200000C040D4072020D807202034
:1057300000002042DC07202000009643CC072020F8
:1057400080B50348002101600220FFF7DBFA80BD2D
:10575000D007202007480168C9B2022904D00129D6
:1057600007D10121054A00E0034A13685B1C13605E
:10577000816270472030864034072020B007202007
:1057800010B50D4C2068C0B2012814D1FCF75CFCA8
:10579000FCF7CCFBFDF7BEF908480178491C017005
:1057A000C9B20A2905D3002101700120400404492F
:1057B00008600120A06210BD20908640D405202002
:1057C000B0120A4001204104204A1160204A1160B1
:1057D00002490A6802430A607047C046049886403E
:1057E0000F480068C0B20B2818D10E4800680E4957
:1057F0000A88C62A07D80A88531C0B800C4B985479
:105800000988591802E000220A80084900220A701B
:10581000C0B2232802D10548012101707047C0465B
:1058200020901040249110409201202090012020CF
:10583000C80020200120C104044A1160044A1160FC
:1058400004490A6802430A607047C04680E200E0EB
:1058500000E100E0043886400148002101707047F3
:10586000C007202070470808F0B587B00590514860
:105870000390514802905148019051480090514C7A
:10588000514E524F524D204631463A462B4600F07B
:10589000E3F821783078049001433A7811432B786B
:1058A0001943474805782943444807783943424813
:1058B00004782143CEB27142714101200690002E3E
:1058C00004D13C480678002E069E0FD0E4B2FFB209
:1058D000EDB2DBB2D2B20498C0B266426641104368
:1058E0003D431D430543280600D00E46394D287818
:1058F000002801D000202EE0374C2078C0B2414271
:1059000041413140354F3878012915D1401C38705C
:1059100000210123009301910291C2B202201121C2
:10592000FEF758FD3878032803D0042804D1FA2163
:1059300000E07D212A4A11600599814207DC069822
:105940002870FCF77BFB2749086000203870267020
:10595000297801204840C007234E069800D13078AE
:10596000C007224F0FD1FCF769FB1E490968401A96
:10597000B84208D90020287018490698087030707D
:105980001B4901F071FE2878012811D130780028D8
:105990000ED0FCF753FB13490968401AB84207D9E7
:1059A000002434702C700120FDF7D6F80C480460F8
:1059B00007B0F0BD37042020360420203504202015
:1059C0003404202030042020310420203204202000
:1059D000330420203904202094062020380420207D
:1059E000080020202C042020AC07202057020000B3
:1059F0000000344380B582B0FFF718FCFCF7FAFBD7
:105A0000FDF7CCFD7D20800000F040F8FCF786FA21
:105A1000FDF766F9FCF7FAFBFFF70CFFFFF7D2FE84
:105A2000FCF750FCFCF716FAFDF782F90122009210
:105A3000022005A11346FEF79FFF064800F026F856
:105A4000FFF752FE02B080BD776169742073746104
:105A5000626C650050460000B0B50B4C25780570AF
:105A600060780870A0781070E07818702079049938
:105A70000870607905990870A07906990870E07936
:105A800007990870B0BDC046C0002020F0B50028BE
:105A900048D0032404406D497E4A034640D015682F
:105AA000002303E0761BF3188B4214D22E461568B0
:105AB000B54208D11568B54205D11568B54202D185
:105AC0001568B542F3D0AE42ECD8761B171F3F687D
:105AD000F619761CE7E7012C03D1431E042844D2B3
